:020000040800F2
:1000000048060020C1010008912700088524000847
:100010008D270008D9020008F92F00080000000011
:10002000000000000000000000000000B9280008E7
:10003000FD02000800000000B52800081129000892
:10004000DB010008DB010008DB010008DB01000820
:10005000DB010008DB010008DB010008DB01000810
:10006000DB010008DB010008DB010008DB01000800
:10007000DB010008DB010008DB010008DB010008F0
:10008000DB010008DB010008DB010008ED020008CD
:10009000DD020008DB010008DB010008DB010008CD
:1000A000DB010008DB010008DB010008DB010008C0
:1000B000DB010008DB010008DB010008DB010008B0
:1000C000DB010008DB010008DB010008DB010008A0
:1000D000DB010008DB010008DB010008DB01000890
:1000E000DB010008DB010008DB010008DB01000880
:1000F000DB010008DB010008DB010008DB01000870
:10010000DB010008DB010008DB010008DB0100085F
:10011000DB010008DB010008DB010008DB0100084F
:10012000DB010008DB010008DB010008DB0100083F
:10013000DB010008DB010008DB010008DB0100082F
:10014000DB010008DB010008DB010008DB0100081F
:10015000DB010008DB010008DB010008DB0100080F
:10016000DB010008DB010008DB010008DB010008FF
:10017000DB010008DB010008DB01000800000000D3
:10018000DB010008DB010008DB010008DB010008DF
:10019000DB010008DB010008DB010008DB010008CF
:1001A0000000000000000000DB010008DFF80CD0B8
:1001B00000F07AF8004800479D300008480600200B
:1001C0000648804706480047FEE7FEE7FEE7FEE7F1
:1001D000FEE7FEE7FEE7FEE7FEE7FEE7D5290008BB
:1001E000AD0100082DE9F05F0546002092469B46D0
:1001F00088460646814640241BE02846414647463D
:10020000224600F041F853465A46C01A914110D395
:1002100011461846224600F028F82D1A67EB01080F
:100220004F4622460120002100F01FF817EB00097D
:100230004E41201EA4F10104DFDC484631462A4627
:100240004346BDE8F09FD2B201E000F8012B491E01
:10025000FBD270470022F6E710B513460A46044663
:100260001946FFF7F0FF204610BD202A04DB203A94
:1002700000FA02F1002070479140C2F1200320FAF9
:1002800003F3194390407047202A04DB203A21FAF7
:1002900002F00021704721FA02F3D040C2F120029F
:1002A00091400843194670471CB509480090094819
:1002B00001900546009C06E0E06840F0010394E8E8
:1002C000070098471034AC42F6D3FFF773FF0000E5
:1002D00088350008A8350008FFE7FEE780B540F242
:1002E0001400C2F2000000F0B1FA80BD80B540F207
:1002F0001400C2F2000000F0A9FA80BD70470000AF
:100300007047000083B001900091019890F82000A0
:10031000012806D0FFE7019890F8200002280AD1B2
:10032000FFE7009A0198016848691043486100207E
:100330008DF80B0008E00199486A40F4802048627B
:1003400001208DF80B00FFE79DF80B0003B070470C
:1003500086B004900391029201930398806808B9D3
:10036000FFE700E0FFE7049890F82000012807D09D
:10037000FFE7049890F82000022840F08580FFE70E
:10038000049800688068400100280ED4FFE70498B4
:10039000006880680001002807D4FFE7049800681F
:1003A0008068C000002866D5FFE704980068806870
:1003B000C0F3016000900099012088400199086015
:1003C0000398806868B9FFE703980168C06840EA4D
:1003D000415004990968009A01EB0211C1F88001AB
:1003E0000EE003994A688868C96840EAC200084379
:1003F00004990968009A01EB0211C1F88001FFE736
:100400000398006904990968009A01EB0211C1F888
:1004100084010398007D01280CD1FFE7049800684F
:10042000009900EB0111D1F8840140F48070C1F80B
:100430008401FFE70298406804990968009A01EB7B
:100440000211C1F88C010298006804990968009AA9
:1004500001EB0211C1F8880104980068009900EBD3
:100460000111D1F8800140F00100C1F880010020A5
:100470008DF8170011E00499486A40F400104862B2
:1004800001208DF8170008E00499486A40F48020A4
:10049000486201208DF81700FFE79DF8170006B0AD
:1004A0007047000085B003900291002001900398EE
:1004B00000680090039890F82000012807D0FFE71B
:1004C000039890F82000022840F0AE80FFE746F243
:1004D0000040C4F2000000900099D1F8000240F002
:1004E0000100C1F800020099D1F8000220F47C500C
:1004F000C1F800020298426A0099D1F8000240EA6D
:100500000220C1F800020298416901208840019050
:10051000019A0099D1F81C029043C1F81C0202987C
:10052000C069F0B9FFE7019A0099D1F80C02904335
:10053000C1F80C02029A9088D168526940EA0140E1
:10054000009901EBC201C1F84002029A108891683B
:10055000526940EA0140009901EBC201C1F844022E
:10056000FFE70298C06901281ED1FFE7019A0099B0
:10057000D1F80C021043C1F80C02029A908811685D
:10058000526940EA0140009901EBC201C1F8400202
:10059000029A90899168526940EA0140009901EB02
:1005A000C201C1F84402FFE70298806940B9FFE741
:1005B000019A0099D1F804029043C1F8040207E0BF
:1005C000019A0099D1F804021043C1F80402FFE730
:1005D0000298006940B9FFE7019A0099D1F8140226
:1005E0009043C1F8140207E0019A0099D1F814026F
:1005F0001043C1F81402FFE70298006A012808D1ED
:10060000FFE7019A0099D1F81C021043C1F81C02BF
:10061000FFE70099D1F8000220F00100C1F80002C4
:1006200000208DF8130008E00399486A40F4802008
:10063000486201208DF81300FFE79DF8130005B014
:100640007047000081B0009001B0704785B0039002
:10065000029101920093039890F82000012807D09E
:10066000FFE7039890F82000022840F0E180FFE7C0
:10067000029880B9FFE703980068C068800748B90E
:10068000FFE70399486A40F40010486201208DF8A2
:100690001300D6E014E00298012810D1FFE7039878
:1006A00000680069800748B9FFE70399486A40F489
:1006B0000010486201208DF81300C2E0FFE7FFE759
:1006C00003980068029900EB0110D0F8B00100F027
:1006D0000400019988600198806858B9FFE7039881
:1006E0000068029900EB0110D0F8B001400D0199AB
:1006F00008600AE003980068029900EB0110D0F846
:10070000B001C00801994860FFE7039800680299AA
:1007100000EB0110D0F8B001C0F340000199C860AF
:1007200003980068029900EB0110D0F8B40100F0C2
:100730000F000199086103980068029900EB01100D
:10074000D0F8B40180B2000A01998861039800686A
:10075000029900EB0110D0F8B401000C0199486136
:1007600003980068029900EB0110D0F8B8010099D5
:10077000087003980068029900EB0110D0F8B801E6
:10078000000A0099487003980068029900EB011074
:10079000D0F8B801000C009988700398006802999D
:1007A00000EB0110D0F8B801000E0099C870039852
:1007B0000068029900EB0110D0F8BC0100990871A3
:1007C00003980068029900EB0110D0F8BC01000A00
:1007D0000099487103980068029900EB0110D0F865
:1007E000BC01000C0099887103980068029900EB25
:1007F0000110D0F8BC01000E0099C871029838B9F8
:10080000FFE703980168C86840F02000C8600BE06B
:100810000298012807D1FFE703980168086940F0B2
:1008200020000861FFE7FFE700208DF8130008E0D3
:100830000399486A40F48020486201208DF8130033
:10084000FFE79DF8130005B07047000080B58AB03F
:10085000099000200890099800684069079009985D
:1008600000684068069009980068806805900998BB
:100870000068C068049009980068006903900998AE
:100880000068806902909DF81C00C007002800F0F5
:100890009480FFE79DF81400C00758B3FFE709985C
:1008A0000168012088609DF814008007002804D5A5
:1008B000FFE7099800F0E4FB1BE09DF814004007F7
:1008C000002805D5FFE7089840F4006008900FE085
:1008D0009DF814000007002805D5FFE7089840F4AC
:1008E0008050089003E0099800F0C6FBFFE7FFE79F
:1008F000FFE7FFE79DF81500C00760B3FFE7099821
:1009000001684FF4807088609DF81500800700280A
:1009100004D5FFE7099800F0BBFB1BE09DF815002C
:100920004007002805D5FFE7089840F400500890DC
:100930000FE09DF815000007002805D5FFE708988F
:1009400040F48040089003E0099800F09DFBFFE729
:10095000FFE7FFE7FFE79DF81600C00760B3FFE77A
:10096000099801684FF4803088609DF81600800770
:10097000002804D5FFE7099800F092FB1BE09DF8E2
:1009800016004007002805D5FFE7089840F400400E
:1009900008900FE09DF816000007002805D5FFE736
:1009A000089840F48030089003E0099800F074FB48
:1009B000FFE7FFE7FFE7FFE7FFE79DF81C00000701
:1009C000002810D5FFE79DF81000C006002809D5C3
:1009D000FFE7089840F4007008900998016810201B
:1009E000C860FFE7FFE79DF81C00400700280FD50F
:1009F000FFE79DF810000007002808D5FFE70998D9
:100A000001680820C860099800F066FAFFE7FFE770
:100A10009DF81C00800700280BD5FFE709980068A7
:100A2000C068800720B1FFE7099800F059FAFFE796
:100A3000FFE79DF81C004006002810D5FFE79DF851
:100A40000C00C006002809D5FFE7089840F4806034
:100A500008900998016810200861FFE7FFE79DF8FA
:100A60001C00800600280FD5FFE79DF80C0000074A
:100A7000002808D5FFE7099801680820086109984F
:100A800000F0A6FAFFE7FFE79DF81C00C00600286B
:100A90000BD5FFE7099800680069800720B1FFE7E0
:100AA000099800F099FAFFE7FFE79DF81E0080071C
:100AB00000280FD5FFE79DF81800C006002808D5CC
:100AC000FFE70998016810204860099800F088FA4B
:100AD000FFE7FFE79DF81E00C00778B1FFE79DF82C
:100AE00018000007002808D5FFE7099801680820CA
:100AF0004860099800F0D8FAFFE7FFE79DF81D006D
:100B00000006002840F18D80FFE79DF8180040079F
:100B1000002840F18180FFE79DF81D00C00750B11B
:100B2000FFE79DF80800C00728B1FFE7089840F0EC
:100B300001000890FFE79DF81D00800700280BD5F5
:100B4000FFE79DF808008007002805D5FFE7089813
:100B500040F002000890FFE79DF81D0040070028C4
:100B60000BD5FFE79DF808004007002805D5FFE7F3
:100B7000089840F004000890FFE79DF81D0000076A
:100B8000002848D5FFE79DF8080010F0700F42D00C
:100B9000FFE7029800F0700001460191102814D080
:100BA000FFE70198202815D0FFE70198302816D0DC
:100BB000FFE70198402817D0FFE70198502818D088
:100BC000FFE70198602819D01DE0089840F0080060
:100BD000089019E0089840F01000089014E0089878
:100BE00040F0200008900FE0089840F04000089086
:100BF0000AE0089840F08000089005E0089840F46A
:100C00008070089000E0FFE709980168886920F08B
:100C100070008861FFE7FFE70998016804204860D9
:100C2000FFE7089848B1FFE7089A0999486A104316
:100C300048620998FFF706FDFFE70AB080BD000093
:100C400080B584B0029000200190029820B9FFE79F
:100C500001208DF80F00E0E0029890F8200020B904
:100C6000FFE7029800F0DEF8FFE7029801680868E5
:100C700020F00200086000F065FC0190FFE7029898
:100C8000006840688007002815D5FFE700F05AFC8F
:100C90000199401A0B280DD3FFE70299486A40F4E6
:100CA000003048620299052081F8200001208DF86B
:100CB0000F00B2E0E3E702980168086840F0010025
:100CC000086000F03FFC0190FFE702980068406870
:100CD000C007A8B9FFE700F035FC0199401A0B28BE
:100CE0000DD3FFE70299486A40F400304862029948
:100CF000052081F8200001208DF80F008DE0E4E749
:100D00000298007E012807D1FFE702980168086871
:100D100040F08000086006E002980168086820F052
:100D200080000860FFE70298407E012807D1FFE7B6
:100D300002980168086840F04000086006E00298E8
:100D40000168086820F040000860FFE70298807E94
:100D5000012807D1FFE702980168086840F02000E9
:100D6000086006E002980168086820F0200008602A
:100D7000FFE70298C07E012807D1FFE702980168CB
:100D8000086820F01000086006E002980168086812
:100D900040F010000860FFE70298007F012807D1AB
:100DA000FFE702980168086840F00800086006E064
:100DB00002980168086820F008000860FFE70298C0
:100DC000407F012807D1FFE702980168086840F0DA
:100DD0000400086006E002980168086820F004003A
:100DE0000860FFE7029B19685A689868D3F80CC03E
:100DF00040EA0C00D3F810C040EA0C005B691843CD
:100E0000013A1043C861029900204862029A012108
:100E100082F820108DF80F00FFE79DF80F0004B056
:100E200080BD000080B58CB00B9000200A90099026
:100E30000890079006900B98006846F20041C4F2B3
:100E40000001884246D1FFE7FFE70020059043F606
:100E50004000C4F20200016841F0007101600068C6
:100E600000F0007005900598FFE7FFE70020049070
:100E700043F63000C4F20200016841F0080101604D
:100E8000006800F0080004900498FFE70320069033
:100E900002210791002102910891099009200A90EE
:100EA00040F60040C4F2020006A900F023F9029ABD
:100EB00013200190114600F0DFFB019800F0D2FBF7
:100EC000029A14200390114600F0D6FB039800F01C
:100ED000C9FBFFE70CB080BD81B0009001B0704746
:100EE00080B58CB00B900B98006846F20041C4F2BC
:100EF0000001884207D1FFE70B98002104AA02AB4A
:100F0000FFF7A4FBFFE70498B0F5017F46D9FFE7A0
:100F100004988008822841D8FFE740F21001C2F20D
:100F200000010888013008800498A0F205208DF89F
:100F300007009DF808109DF8090040EA01209DF87F
:100F4000071001EB410240F27C01C2F2000101EB0B
:100F5000820290809DF80A209DF80B0040EA022052
:100F60009DF8072002EB420201EB8202D0809DF83F
:100F70000C209DF80D0040EA02209DF8072002EBAE
:100F8000420201EB820210819DF80E009DF80720BD
:100F900002EB420201EB82018872FFE740F210008F
:100FA000C2F200000088B0F5FA7F0FD1FFE740F2EF
:100FB0001001C2F200010020088041F21441C4F285
:100FC0000201086880F480400860FFE70CB080BD33
:100FD00081B0009001B0704781B0009001B07047BF
:100FE00081B0009001B0704780B584B002900020BD
:100FF0000190029890F8200001282FD1FFE7029974
:10100000022081F8200002980168086820F00100A1
:10101000086000F097FA0190FFE7029800684068C6
:10102000C007A8B1FFE700F08DFA0199401A0B281C
:101030000DD3FFE70299486A40F4003048620299F4
:10104000052081F8200001208DF80F000FE0E4E773
:101050000299002048628DF80F0008E00299486A62
:1010600040F40020486201208DF80F00FFE79DF852
:101070000F0004B080BD000081B0009001B0704747
:1010800081B0009001B0704781B0009001B070470E
:1010900081B0009001B0704781B0009001B07047FE
:1010A00081B0009001B0704781B0009001B07047EE
:1010B00080B584B0039000F045FA02900398019047
:1010C0000198013048B1FFE740F20800C2F2000089
:1010D0000178019808440190FFE7FFE700F032FA39
:1010E0000299401A0199884201D2FFE7F6E704B05D
:1010F00080BD000090B00F900E9100200C900B90DE
:101100000A900D90FFE70D980F2800F2E981FFE7A4
:101110000D99012088400C900E9800680C990840A9
:101120000B900B980C99884240F0D581FFE70E9800
:101130004068022805D0FFE70E984068122826D1A3
:10114000FFE70F980D996FF0030202EA510108447E
:10115000006A0A900D9800F0070081000F2000FA45
:1011600001F10A9888430A900E9800690D9901F0E0
:101170000701890000FA01F10A9808430A900A98C9
:101180000F990D9B02EA530211440862FFE70F9882
:1011900000680A900D984100032000FA01F10A98B6
:1011A00088430A900E98406800F003000D994900AA
:1011B00000FA01F10A9808430A900A980F9908600A
:1011C0000E98406801280FD0FFE70E98406802286B
:1011D0000AD0FFE70E984068112805D0FFE70E9867
:1011E000406812282FD1FFE70F9880680A900D9869
:1011F0004100032000FA01F10A9888430A900E98F2
:10120000C0680D99490000FA01F10A9808430A9054
:101210000A980F9988600F9840680A900D990120EC
:1012200000FA01F10A9888430A900E984068C0F3CA
:1012300000100D9900FA01F10A9808430A900A98E3
:101240000F994860FFE70F98C0680A900D98410019
:10125000032000FA01F10A9888430A900E988068EA
:101260000D99490000FA01F10A9808430A900A987A
:101270000F99C8600E98C079C006002840F12A81F5
:10128000FFE7FFE70020099043F64400C4F20200A4
:10129000016841F480410160006800F480400990D9
:1012A0000998FFE70D9820F0030043F60801C4F207
:1012B000010140580A900D9800F0030081000F20B2
:1012C00000FA01F10A9888430A900F980021C4F2AD
:1012D0000201884203D1FFE7002008907AE00F98CE
:1012E00040F20041C4F20201884203D1FFE701202D
:1012F00007906CE00F9840F60001C4F202018842AA
:1013000003D1FFE7022006905EE00F9840F600410F
:10131000C4F20201884203D1FFE70320059050E0A8
:101320000F9841F20001C4F20201884203D1FFE7A5
:101330000420049042E00F9841F20041C4F20201FF
:10134000884203D1FFE70520039034E00F9841F66F
:101350000001C4F20201884203D1FFE70620029097
:1013600026E00F9841F60041C4F20201884203D101
:10137000FFE70720019018E00F9842F20001C4F245
:101380000201884203D1FFE7082000900AE00F998C
:1013900042F20042C4F202020A20914208BF092030
:1013A0000090FFE700980190FFE701980290FFE7A7
:1013B00002980390FFE703980490FFE704980590D4
:1013C000FFE705980690FFE706980790FFE7079864
:1013D0000890FFE70898C0B20D9901F00301890059
:1013E00000FA01F10A9808430A900A980D9921F031
:1013F000030143F60802C4F20102885043F600409C
:10140000C4F2010000680A900B990A9888430A9078
:101410000E988079C00728B1FFE70B990A98084316
:101420000A90FFE70A9843F60041C4F20101086000
:1014300043F60440C4F2010000680A900B990A9830
:1014400088430A900E9880798007002805D5FFE729
:101450000B990A9808430A90FFE70A9843F604415B
:10146000C4F20101086043F60840C4F201000068BC
:101470000A900B990A9888430A900E988079C006C2
:10148000002805D5FFE70B990A9808430A90FFE763
:101490000A9843F60841C4F20101086043F60C4083
:1014A000C4F2010000680A900B990A9888430A90D8
:1014B0000E9880798006002805D5FFE70B990A98D9
:1014C00008430A90FFE70A9843F60C41C4F2010171
:1014D0000860FFE7FFE7FFE70D9801300D9012E687
:1014E00010B0704782B00190ADF802100198006909
:1014F000BDF80210084204D0FFE701208DF801007A
:1015000003E000208DF80100FFE79DF8010002B024
:101510007047000082B00190ADF802108DF80120F4
:101520009DF8010028B1FFE7BDF80200019988612C
:1015300005E0BDF80200000401998861FFE702B0F0
:101540007047000040F24020C2F20000006870477F
:1015500040F20800C2F20000027840F24021C2F2DC
:1015600000010868104408607047000080B582B030
:1015700043F60041C4F20201086840F400700860BC
:10158000086840F480600860086840F48070086073
:10159000032000F08BF80020019000F005F800F027
:1015A0003BF8019802B080BD80B582B0009040F257
:1015B0000000C2F20000006840F20801C2F200011F
:1015C0000A784FF47A71B1FBF2F1B0FBF1F000F060
:1015D0002FFD20B1FFE701208DF8070018E00098EB
:1015E0000F280DD8FFE700994FF0FF30002200F0E0
:1015F00043F8009840F20C01C2F20001086003E0D9
:1016000001208DF8070003E000208DF80700FFE7B8
:101610009DF8070002B080BD82B0FFE70020019076
:1016200043F64400C4F20200016841F480410160C5
:10163000006800F4804001900198FFE7FFE7002078
:10164000009043F64000C4F20200016841F080516E
:101650000160006800F0805000900098FFE702B041
:101660007047000080B582B08DF807009DF9070033
:1016700001F090F802B080BD80B586B08DF81700FB
:10168000049103920020029001F0CCF802909DF9A1
:101690001700019002980499039A01F08DF8014611
:1016A000019801F0C7F806B080BD000080B582B097
:1016B0000190019801F0E0F802B080BD80B586B0DD
:1016C00004900391049820B9FFE701208DF81700DA
:1016D0001EE1039843F60041C4F20201096801F0DB
:1016E0000F01884212D9FFE7039943F60040C4F284
:1016F00002000170006800F00F000399884204D0D6
:10170000FFE701208DF8170002E1FFE70498007859
:10171000800700282AD5FFE70498007840070028B2
:1017200009D5FFE743F60801C4F20201086840F456
:10173000E0500860FFE7049800780007002809D50A
:10174000FFE743F60801C4F20201086840F4604074
:101750000860FFE743F60801C4F20201086820F0C0
:10176000F000049A926810430860FFE7049800783C
:10177000C00700286ED0FFE704984068012811D107
:10178000FFE743F60000C4F20200006800F40031F5
:101790000020B0EB514F04D1FFE701208DF8170076
:1017A000B6E02CE004984068022805D0FFE70498D2
:1017B0004068032811D1FFE743F60000C4F202009D
:1017C000006800F000710020B0EB516F04D1FFE71A
:1017D00001208DF817009BE010E043F60000C4F2F2
:1017E0000200006800F002010020B0EB510F04D1AC
:1017F000FFE701208DF817008AE0FFE7FFE743F6D7
:101800000801C4F20201086820F00300049A52683B
:1018100010430860FFF796FE0290FFE743F60800CA
:10182000C4F20200006800F00C0004994968B0EBB3
:10183000810F0ED0FFE7FFF785FE0299401A41F2B3
:101840008931884204D3FFE703208DF817005FE059
:10185000E4E7FFE7039843F60041C4F20201096898
:1018600001F00F01884212D2FFE7039943F60040CE
:10187000C4F202000170006800F00F000399884272
:1018800004D0FFE701208DF8170041E0FFE704983E
:101890000078400700280CD5FFE743F60801C4F2A2
:1018A0000201086820F4E050049AD26810430860EE
:1018B000FFE704980078000700280DD5FFE743F6FE
:1018C0000801C4F20201086820F46040049A126919
:1018D00040EAC2000860FFE700F01EF843F6080186
:1018E000C4F202010968C9B20A0943F27851C0F68C
:1018F0000001895CC84040F20001C2F200010860AA
:1019000000200190FFF750FE01988DF81700FFE7C7
:101910009DF8170006B080BD80B586B00020059008
:1019200004900390029043F60800C4F2020000689D
:1019300000F00C000146019140B1FFE70198042836
:101940000AD0FFE7019808280CD04FE042F200408F
:10195000C0F2F40002904FE041F60030C0F2B70050
:10196000029049E043F60400C4F20200016801F06D
:101970003F01059100684002002813D5FFE743F6B8
:101980000400C4F202000068C0F3881041F6003180
:10199000C0F2B701A0FB0101059A0023FEF722FC6B
:1019A000049012E043F60400C4F202000068C0F3A1
:1019B000881042F20041C0F2F401A0FB0101059A37
:1019C0000023FEF70FFC0490FFE743F60400C4F287
:1019D0000200006800F44031022000EBD130039097
:1019E00004980399B0FBF1F0029005E042F2004048
:1019F000C0F2F4000290FFE7029806B080BD00003C
:101A000080B586B00490049820B9FFE701208DF8D6
:101A1000170009E304980078C007002800F0A580AB
:101A2000FFE743F60800C4F20200006800F00C0073
:101A3000042813D0FFE743F60800C4F20200006850
:101A400000F00C0008281ED1FFE743F60400C4F2A2
:101A5000020000684002002815D5FFE743F60000A9
:101A6000C4F20200006800F400310020B0EB514FD6
:101A700008D0FFE70498406820B9FFE701208DF8FF
:101A80001700D1E270E0FFE704984068B0F5803FAE
:101A900009D1FFE743F60001C4F20201086840F4EF
:101AA0008030086020E004984068B0F5A02F0DD188
:101AB000FFE743F60001C4F20201086840F4802009
:101AC0000860086840F4803008600CE043F60001CC
:101AD000C4F20201086820F480300860086820F42D
:101AE00080200860FFE7FFE7FFE704984068E8B15F
:101AF000FFE7FFF727FD0390FFE743F60000C4F27E
:101B00000200006800F400310020B0EB514F0CD10E
:101B1000FFE7FFF717FD0399401A652804D3FFE795
:101B200003208DF817007FE2E7E71CE0FFF70AFDCE
:101B30000390FFE743F60000C4F20200006800F4DF
:101B400000310020B0EB514F0CD0FFE7FFF7FAFC5B
:101B50000399401A652804D3FFE703208DF8170086
:101B600062E2E7E7FFE7FFE7FFE704980078800716
:101B7000002840F19680FFE743F60800C4F2020017
:101B8000006810F00C0F13D0FFE743F60800C4F212
:101B90000200006800F00C0008282CD1FFE743F693
:101BA0000400C4F2020000684002002823D4FFE7CA
:101BB00043F60000C4F20200006800F002010020B9
:101BC000B0EB510F09D0FFE70498C068012804D09A
:101BD000FFE701208DF8170026E243F60001C4F26A
:101BE0000201086820F0F800049A126940EAC20075
:101BF0000860FFE754E00498C06870B3FFE7002175
:101C0000C4F2472101200860FFF79CFC0390FFE726
:101C100043F60000C4F20200006800F00201002058
:101C2000B0EB510F0CD1FFE7FFF78CFC0399401A82
:101C3000032804D3FFE703208DF81700F4E1E7E75A
:101C400043F60001C4F20201086820F0F800049A8B
:101C5000126940EAC200086021E00021C4F2472175
:101C600000200860FFF76EFC0390FFE743F60000DA
:101C7000C4F20200006800F002010020B0EB510F36
:101C80000CD0FFE7FFF75EFC0399401A032804D34A
:101C9000FFE703208DF81700C6E1E7E7FFE7FFE75E
:101CA000FFE704980078000700284BD5FFE7049869
:101CB000406918B3FFE740F68061C4F24721012074
:101CC0000860FFF73FFC0390FFE743F67400C4F29F
:101CD0000200006800F002010020B0EB510F0CD1AF
:101CE000FFE7FFF72FFC0399401A032804D3FFE70F
:101CF00003208DF8170097E1E7E722E040F68061C6
:101D0000C4F2472100200860FFF71CFC0390FFE7A6
:101D100043F67400C4F20200006800F002010020E3
:101D2000B0EB510F0CD0FFE7FFF70CFC0399401A02
:101D3000032804D3FFE703208DF8170074E1E7E7D9
:101D4000FFE7FFE7049800784007002840F1CE80C5
:101D5000FFE700208DF80B0043F64000C4F20200BC
:101D60000068C000002815D4FFE7FFE700200190BD
:101D700043F64000C4F20200016841F08051016066
:101D8000006800F0805001900198FFE701208DF875
:101D90000B00FFE747F20000C4F200000068C00536
:101DA000002822D4FFE747F20001C4F200010868CE
:101DB00040F480700860FFF7C5FB0390FFE747F22F
:101DC0000000C4F200000068C00500280CD4FFE742
:101DD000FFF7B8FB0399401A032804D3FFE7032059
:101DE0008DF8170020E1EAE7FFE7FFE70498806835
:101DF000012809D1FFE743F67001C4F20201086827
:101E000040F0010008601FE00498806805280DD1AB
:101E1000FFE743F67001C4F20201086840F00400D5
:101E20000860086840F0010008600CE043F67001AB
:101E3000C4F20201086820F001000860086820F080
:101E400004000860FFE7FFE7FFE704988068F8B147
:101E5000FFE7FFF777FB0390FFE743F67000C4F25C
:101E60000200006800F002010020B0EB510F0ED11B
:101E7000FFE7FFF767FB0399401A41F28931884277
:101E800004D3FFE703208DF81700CDE0E5E71EE05F
:101E9000FFF758FB0390FFE743F67000C4F202001F
:101EA000006800F002010020B0EB510F0ED0FFE7F8
:101EB000FFF748FB0399401A41F28931884204D365
:101EC000FFE703208DF81700AEE0E5E7FFE79DF898
:101ED0000B00012809D1FFE743F64001C4F20201DB
:101EE000086820F080500860FFE7FFE704988069E9
:101EF000002800F09580FFE743F60800C4F20200D6
:101F0000006800F00C00082800F08580FFE70498C6
:101F1000806902285CD1FFE76021C4F247210020DC
:101F20000860FFF70FFB0390FFE743F60000C4F2E1
:101F30000200006800F000710020B0EB516F0CD07F
:101F4000FFE7FFF7FFFA0399401A032804D3FFE7DE
:101F500003208DF8170067E0E7E70499C869D1F816
:101F600020C04B6A8A6A40EA0C0040EA8310D20320
:101F70004FF6FF739A43A2F580321043C96A40EAD4
:101F8000016043F60401C4F2020108606021C4F25A
:101F9000472101200860FFF7D5FA0390FFE743F6D9
:101FA0000000C4F20200006800F000710020B0EBF5
:101FB000516F0CD1FFE7FFF7C5FA0399401A0328C8
:101FC00004D3FFE703208DF817002DE0E7E721E0B9
:101FD0006021C4F2472100200860FFF7B3FA0390A4
:101FE000FFE743F60000C4F20200006800F0007151
:101FF0000020B0EB516F0CD0FFE7FFF7A3FA039975
:10200000401A032804D3FFE703208DF817000BE0E4
:10201000E7E7FFE703E001208DF8170004E0FFE7A2
:1020200000208DF81700FFE79DF8170006B080BD6F
:1020300080B582B00190019800F040FC02B080BDF4
:1020400084B00290019100200090FFE7029890F880
:102050003800012804D1FFE702208DF80F004BE083
:102060000299012081F83800FFE7FFE7009820F08F
:10207000FF000199C96808430090009820F440705F
:102080000199896808430090009820F480600199C4
:10209000496808430090009820F40060019909689D
:1020A00008430090009820F4805001990969084382
:1020B0000090009820F4005001994969084300906D
:1020C000009820F4804001998969084300900098A5
:1020D00020F4004001998969084300900098029912
:1020E00009684864FFE70299002081F83800FFE79B
:1020F00000208DF80F00FFE79DF80F0004B0704737
:1021000083B001900091FFE7019890F83800012812
:1021100004D1FFE702208DF80B0031E00199012086
:1021200081F83800FFE7FFE70199022081F83900C4
:1021300001980168486820F07000486000980268C3
:1021400001980168486810434860019801688868F0
:1021500020F08000886000984268019801688868D3
:10216000104388600199012081F83900FFE7019947
:10217000002081F83800FFE700208DF80B00FFE712
:102180009DF80B0003B0704780B58CB00B90002019
:102190000A9009900890079006900B98006800211B
:1021A000C4F20101884249D1FFE7FFE70020059012
:1021B00043F63000C4F20200016841F00101016001
:1021C000006800F0010005900598FFE7FFE7002098
:1021D000049043F63000C4F20200016841F010019F
:1021E0000160006800F0100004900498FFE74FF4CD
:1021F0004070069002200090079000200190089007
:102200000990012002900A900020C4F2020006A961
:102210000391FEF76FFF009B019A029803994FF418
:10222000C04CCDF818C00793089209920A9041F269
:102230000000C4F20200FEF75DFFFFE70CB080BDB6
:1022400080B586B0049003910292FFE7049890F85D
:102250003800012804D1FFE702208DF817008DE037
:102260000499012081F83800FFE7FFE70499022074
:1022700081F83900029801900C2800F270800199D1
:10228000DFE801F0076D6D6D206D6D6D3A6D6D6D60
:10229000530004980068039900F0EEFC049801686C
:1022A000886940F00800886104980168886920F016
:1022B00004008861039802690498016888691043E2
:1022C00088614DE004980068039900F047FD049888
:1022D0000168886940F40060886104980168886931
:1022E00020F4806088610398026904980168886915
:1022F00040EA0220886133E004980068039900F006
:10230000A5FD04980168C86940F00800C8610498F8
:102310000168C86920F00400C86103980269049844
:102320000168C8691043C8611AE0049800680399FD
:1023300000F002FE04980168C86940F40060C861BA
:1023400004980168C86920F48060C8610398026934
:1023500004980168C86940EA0220C86100E0FFE70C
:102360000499012081F83900FFE70499002081F8E1
:102370003800FFE700208DF81700FFE79DF81700F1
:1023800006B080BD80B582B00090009820B9FFE70C
:1023900001208DF807001DE0009890F8390040B941
:1023A000FFE70099002081F83800009800F016F847
:1023B000FFE70099022081F83900009951F8040BD9
:1023C00000F040FB0099012081F8390000208DF8D1
:1023D0000700FFE79DF8070002B080BD82B00190C2
:1023E000019800680021C4F20101884212D1FFE780
:1023F000FFE70020009043F64400C4F202000168A9
:1024000041F001010160006800F0010000900098B7
:10241000FFE7FFE702B0704780B584B003900291F8
:102420000398006802990122009200F00BFC0098CA
:10243000039909680022C4F20102914201900CD074
:10244000FFE7039800684FF60041CBF6FE710844A1
:10245000B0FA80F040090190FFE70198C00738B159
:10246000FFE703980168486C40F400404864FFE7C8
:1024700003980168086840F001000860002004B07B
:1024800080BD0000FFE7FEE780B582B040F2140097
:10249000C2F20000019046F20041C4F20001016066
:1024A0000321416000218160C1604FF4002202617C
:1024B0004FF4401242610176012242768176C17664
:1024C00001774177FEF7BCFB18B1FFE7FDF718FF76
:1024D000FFE702B080BD000080B594B000201390EB
:1024E0001290119010900F90FFE700200E9043F68D
:1024F0003000C4F20200016841F008010160006888
:1025000000F008000E900E98FFE7FFE700200D9006
:1025100043F63000C4F20200016841F0010101609D
:10252000006800F001000D900D98FFE7FFE7002024
:102530000C9043F63000C4F20200016841F08001C3
:102540000160006800F080000C900C98FFE7FFE746
:1025500000200B9043F63000C4F20200016841F005
:1025600002010160006800F002000B900B98FFE789
:10257000FFE700200A9043F63000C4F20200016831
:1025800041F010010160006800F010000A900A9804
:10259000FFE7FFE70020099043F63000C4F2020095
:1025A000016841F020010160006800F020000990FE
:1025B0000998FFE741F60040C4F2020001903C2177
:1025C000009100220692FEF7A5FF069A41F2000054
:1025D000C4F2020003904FF400610291FEF79AFFEB
:1025E000069A41F20040C4F2020007904FF4804185
:1025F0000491FEF78FFF009A019806990F9201222D
:1026000005921092119112910FA90891FEF772FD97
:102610000698089904220F921090119040F2004001
:10262000C4F20200FEF766FDDDF808C00398059BC2
:10263000069A0899CDF83CC0109311921292FEF7B9
:1026400059FDDDF810C0059B069A07980899CDF84A
:102650003CC0109311921292FEF74CFD14B080BD55
:1026600080B592B000210191119110910F910E91BE
:102670000D910C910B910A91099108910791069186
:10268000059104910391029140F23C00C2F20000D6
:102690000022C4F201020260A7224260816044F677
:1026A0002062C26001614161FFF76CFE18B1FFE773
:1026B000FDF726FEFFE700201090119040F23C004D
:1026C000C2F2000010A9FFF71BFD18B1FFE7FDF7EC
:1026D00017FEFFE7602009904FF47A700A900022FD
:1026E0000B920C920D920E920F9240F23C00C2F2AD
:1026F000000009A9FFF7A4FD18B1FFE7FDF700FEF0
:10270000FFE740F23C00C2F2000009A90422FFF7F3
:1027100097FD18B1FFE7FDF7F3FDFFE740F23C003E
:10272000C2F2000009A90822FFF78AFD18B1FFE7ED
:10273000FDF7E6FDFFE740F23C00C2F2000009A908
:102740000C22FFF77DFD18B1FFE7FDF7D9FDFFE78C
:102750000020029003900490059006904FF40051E1
:102760000791089040F23C00C2F2000002A9FFF776
:1027700067FC18B1FFE7FDF7C3FDFFE740F23C003F
:10278000C2F20000FFF700FD12B080BDFFE7FEE7D8
:102790007047000081B08DF803009DF9031001F02F
:1027A0001F02012090404A094EF20011CEF20001B2
:1027B00041F8220001B0704788B007900691059259
:1027C000079800F0070004900498C0F1070005285E
:1027D00003D3FFE70420019004E00498C0F1070050
:1027E0000190FFE70198039004980430062803D86D
:1027F000FFE70020009003E0049803380090FFE713
:102800000098029006980399012202FA01F1013919
:102810000840029B984005999A40013A11400843AC
:1028200008B070474EF60C50CEF200000068C0F3BE
:102830000220704782B08DF8070000919DF90700D3
:10284000B0F1FF3F0CDCFFE7009800019DF8071096
:1028500001F00F014EF61452CEF20002885409E046
:10286000009800019DF907104EF20042CEF20002DE
:102870008854FFE702B0704783B00290029800F0DE
:10288000070000904EF60C51CEF20001086801904E
:1028900001984FF6FF02104001900198009A40EA1B
:1028A00002200022C0F2FA52104301900198086001
:1028B00003B07047704700007047000080B582B0D9
:1028C000009000980138B0F1807F03D3FFE701202A
:1028D000019019E0009801384EF21401CEF2000187
:1028E00008604FF0FF300F21FFF7A4FF4EF21801F0
:1028F000CEF20001002008604EF21002CEF200027B
:10290000072111600190FFE7019802B080BD00002F
:1029100080B5FEF71DFE80BD80B594B008A83021BB
:10292000FDF798FC00200790069005900490039016
:10293000FFE70020029043F64000C4F20200016865
:1029400041F080510160006800F0805002900298D0
:10295000FFE7FFE70020019047F20000C4F200000B
:10296000016841F440410160006800F4404001907A
:102970000198FFE7012008904FF480300990022071
:102980000E904FF480010F9106211091A821119112
:1029900012900420139008A8FFF732F818B1FFE74F
:1029A000FDF7AEFCFFE70F2003900220049000200B
:1029B00005904FF4A05006904FF48050079003A864
:1029C0000521FEF77BFE18B1FFE7FDF799FCFFE755
:1029D00014B080BD4EF68851CEF20001086840F474
:1029E0007000086043F60002C4F20202106840F072
:1029F0000100106043F60801C4F2020100200860E3
:102A000011684FF6FF73CFF6F6631940116043F675
:102A10000403C4F2020343F21001C2F20041196040
:102A2000116821F48021116043F60C01C4F2020107
:102A300008604EF60851CEF200014FF000600860C9
:102A40007047000086B0059004910020039005981F
:102A500000680390059901200022C4F2010291420E
:102A6000029030D0FFE705990120B1F1804F02902C
:102A700029D0FFE70599012040F20042C4F200028C
:102A8000914202901FD0FFE70599012040F6000215
:102A9000C4F200029142029015D0FFE7059901208F
:102AA00040F60042C4F20002914202900BD0FFE7D0
:102AB00005984FF60041CBF6FE710844B0FA80F05D
:102AC00040090290FFE70298C00750B1FFE7039862
:102AD00020F0700003900498416803980843039025
:102AE000FFE7059901200022C4F201029142019002
:102AF0006CD0FFE705990120B1F1804F019065D0BE
:102B0000FFE70599012040F20042C4F20002914221
:102B100001905BD0FFE70599012040F60002C4F266
:102B200000029142019051D0FFE70599012040F643
:102B30000042C4F200029142019047D0FFE705999C
:102B4000012040F20042C4F20102914201903DD0C6
:102B5000FFE70599012044F20002C4F2010291420C
:102B6000019033D0FFE70599012044F20042C4F2FE
:102B700001029142019029D0FFE70599012044F616
:102B80000002C4F20102914201901FD0FFE70599B3
:102B9000012041F60002C4F200029142019015D0DA
:102BA000FFE70599012041F60042C4F2000291427C
:102BB00001900BD0FFE705984EF20001CBF6FF71B4
:102BC0000844B0FA80F040090190FFE70198C0077F
:102BD00050B1FFE7039820F4407003900498C16857
:102BE000039808430390FFE7039805990860049849
:102BF00080680599C86204980068059988620599FB
:102C000001200022C4F20102914200900BD0FFE7A4
:102C100005984FF60041CBF6FE710844B0FA80F0FB
:102C200040090090FFE70098C00728B1FFE704982B
:102C3000006905990863FFE705990120486106B01E
:102C40007047000084B00390029101920020009030
:102C50000299012088400090009A0399086A9043E5
:102C600008620198029900FA01F20399086A104378
:102C7000086204B07047000086B0059004910020FF
:102C80000390029001900599086A20F00100086203
:102C90000598006A0290059840680190059880693F
:102CA0000390039820F070000390039820F0030035
:102CB000039004980168039808430390029820F059
:102CC00002000290049881680298084302900599D6
:102CD00001200022C4F20102914200900BD0FFE7D4
:102CE00005984FF60041CBF6FE710844B0FA80F02B
:102CF00040090090FFE70098C00700B3FFE7029883
:102D000020F0080002900498C168029808430290DD
:102D1000029820F004000290019820F48070019045
:102D2000019820F4007001900498416901980843CB
:102D3000019004988169019808430190FFE7019888
:102D40000599486003980599886104984068059939
:102D5000486302980599086206B0704786B00590EE
:102D6000049100200390029001900599086A20F0D8
:102D7000100008620598006A02900598406801906A
:102D8000059880690390039820F4E040039003982D
:102D900020F44070039004980168039840EA0120F1
:102DA0000390029820F02000029004988168029815
:102DB00040EA01100290059901200022C4F20102AC
:102DC000914200900BD0FFE705984FF60041CBF6FB
:102DD000FE710844B0FA80F040090090FFE70098C7
:102DE000C00718B3FFE7029820F080000290049813
:102DF000C168029840EA01100290029820F0400059
:102E00000290019820F480600190019820F4006005
:102E1000019004984169019840EA8100019004986A
:102E20008169019840EA81000190FFE701980599C6
:102E300048600398059988610498406805998863FB
:102E400002980599086206B07047000086B00590A8
:102E5000049100200390029001900599086A20F4E3
:102E6000807008620598006A029005984068019099
:102E70000598C0690390039820F0700003900398B0
:102E800020F003000390049801680398084303901E
:102E9000029820F40070029004988168029840EA39
:102EA00001200290059901200022C4F20102914202
:102EB00000900BD0FFE705984FF60041CBF6FE716E
:102EC0000844B0FA80F040090090FFE70098C0077E
:102ED00018B3FFE7029820F4006002900498C168DC
:102EE000029840EA01200290029820F4806002904B
:102EF000019820F480500190019820F40050019036
:102F000004984169019840EA011001900498816990
:102F1000019840EA01100190FFE701980599486087
:102F200003980599C861049840680599C863029898
:102F30000599086206B0704786B00590049100209C
:102F40000390029001900599086A20F4805008626D
:102F50000598006A02900598406801900598C0693C
:102F60000390039820F4E0400390039820F440700D
:102F7000039004980168039840EA012003900298A6
:102F800020F40050029004988168029840EA0130D1
:102F90000290059901200022C4F2010291420090A2
:102FA0000BD0FFE705984FF60041CBF6FE710844C1
:102FB000B0FA80F040090090FFE70098C00758B1D0
:102FC000FFE7019820F4804001900498416901983E
:102FD00040EA81100190FFE7019805994860039845
:102FE0000599C86104984068059908640298059994
:102FF000086206B070470000FFE7FEE780B58CB0BE
:103000000B900021069107910120089001910291F7
:1030100003910491059109900E200A900B9801A943
:10302000FDF740FA40F21400C2F200000090FDF7F4
:10303000DBFF00980221FDF765F90CB080BD0000B0
:1030400080B582B040F27800C2F2000000900078B3
:1030500040F27901C2F20001087040F20040C4F26F
:1030600002000421FEF73EFA014600980170007844
:1030700060B9FFE740F27900C2F200000078012851
:1030800004D1FFE701208DF8070003E000208DF850
:103090000700FFE79DF8070002B080BD80B588B04B
:1030A000002005900790FEF761FAFFF735FCFFF767
:1030B00013FAFFF7E9F9FFF7D3FA41F60040C4F23B
:1030C00002003C210122FEF725FA00F0E7F940F268
:1030D0001400C2F20000FFF791FF05988DF81B0065
:1030E000FFE79DF81B0006281CDCFFE79DF81B008E
:1030F00040F2D002C2F20002342110FB01209FED09
:10310000780AF0EE080A9FED771A9FED772AF0EE25
:10311000421A00F0A5F9FFE79DF81B0001308DF879
:103120001B00DEE7FFE740F27A00C2F200000188F0
:1031300001310180B0F90000FA280FD1FFE740F219
:103140007A01C2F200010020088041F21401C4F2A9
:103150000201086880F400600860FFE7FFF770FF75
:10316000D0B3FFE740F23C20C2F2000090ED000A2D
:10317000B1EE041A30EE010A80ED000A40F20402BA
:10318000C2F2000211881831118040F20602C2F228
:10319000000211881839118090ED000A9FED4F1A36
:1031A000B4EE410AF1EE10FA15DDFFE740F23C21E2
:1031B000C2F200010020086040F20401C2F20001E6
:1031C0004FF48760088040F20601C2F200014FF41C
:1031D000F0600880FFE7FFE700208DF81A00FFE7A6
:1031E0009DF81A00062833DCFFE79DF81A1040F21C
:1031F000D002C2F20002342011FB002040F23C2237
:10320000C2F2000292ED000A01EB410240F27C01A1
:10321000C2F20001049101EB8201B1F9061001EE46
:10322000101AF8EEC10A00F061F80499BDEEC00A68
:1032300010EE100A9DF81A2002EB420201EB820107
:103240004880FFE79DF81A0001308DF81A00C7E7A3
:1032500040F27C00C2F200000190B0F90210B0F917
:103260000E20B0F91A30B0F92600EC46CCF8000078
:103270000020039000F02AF9019B0398B3F9321063
:10328000B3F93E20B3F94A30EC46CCF800000120F7
:1032900000F01CF940F20400C2F20000028840F283
:1032A0003C01C2F2000102910B685A630088096870
:1032B00088634FF47A70FDF7FBFE029A039840F2A0
:1032C0000601C2F200010B88D2F800C0CCF83C30F5
:1032D000098812681164FDF7EBFE24E7000034430F
:1032E00000002042000000000060EA4687B006901F
:1032F0008DED050ACDED040A0598069948610498FC
:10330000069988610699C8690862069890ED050AD1
:1033100090ED061A30EE410A80ED070A069890ED0E
:10332000000A90ED071A20EE010A80ED090A0698BE
:1033300090ED010A90ED072A90ED0A1A20EE020A9C
:1033400030EE010A80ED0A0A069890ED020A90ED2F
:10335000071A90ED082A31EE421A20EE010A80ED9C
:103360000B0A069890ED031A90ED0A0AB1EE411A85
:10337000B4EE410AF1EE10FA08DCFFE7069890ED92
:10338000030AB1EE400A8DED030A1BE0069890EDAA
:10339000031A90ED0A0AB4EE410AF1EE10FA06DBC8
:1033A000FFE7069890ED030A8DED020A05E0069806
:1033B00090ED0A0A8DED020AFFE79DED020A8DED00
:1033C000030AFFE79DED030A069880ED0A0A0698B6
:1033D00090ED090A90ED0A2A90ED0B1A30EE020AE0
:1033E00030EE010A80ED0C0A069890ED041A90ED7B
:1033F0000C0AB1EE411AB4EE410AF1EE10FA08DC03
:10340000FFE7069890ED040AB1EE400A8DED010A3F
:103410001BE0069890ED041A90ED0C0AB4EE410AF8
:10342000F1EE10FA06DBFFE7069890ED040A8DED49
:10343000000A05E0069890ED0C0A8DED000AFFE702
:103440009DED000A8DED010AFFE79DED010A06984A
:1034500080ED0C0A069890ED0C0A07B0704700004A
:1034600086B005908DED040ACDED030A8DED021AAC
:10347000CDED011A8DED002A049805990860039896
:103480000599486002980599886001980599C86077
:1034900000980599086106B07047000080B582B0B9
:1034A00040F23C00C2F2000001900021FEF7B4FFA0
:1034B00001980421FEF7B0FF01980821FEF7ACFF48
:1034C00001980C21FEF7A8FF02B080BD80B58CB03A
:1034D00084460E988DF82FC0ADF82C10ADF82A2038
:1034E000ADF82830ADF826009DF82F1040F2FF20EF
:1034F000002908BF40F2FF100390002005900690BD
:10350000082007909DF82D008DF80400BDF82C00D0
:103510008DF805009DF82B008DF80600BDF82A00F7
:103520008DF807009DF829008DF80800BDF82800E7
:103530008DF809009DF827008DF80A00BDF82600D7
:103540008DF80B0040F21400C2F2000003A901AA9A
:103550000123FCF7FDFE0CB080BD02E008C8121F7D
:1035600008C1002AFAD170477047002001E001C16C
:10357000121F002AFBD1704700000000000000006D
:103580000102030406070809A8350008000000200E
:10359000100000005A350008B8350008100000205F
:1035A000380600006A3500080024F400380480075B
:0835B000010000001000000002
:04000005080001AD41
:00000001FF
